:020000040800F2
:10000000D8470120590200080D360008E9320008DF
:1000100009360008130400084154000800000000DD
:100020000000000000000000000000009D0100082A
:100030006305000800000000F1010008E94A00081B
:1000400073020008730200087302000873020008BC
:1000500073020008730200087302000873020008AC
:10006000730200087302000873020008730200089C
:10007000730200087302000873020008730200088C
:10008000190400082904000873020008730200081C
:10009000730200087302000873020008730200086C
:1000A000730200085D4C0008730200087302000828
:1000B000730200087302000873020008730200084C
:1000C000730200087302000873020008730200083C
:1000D000730200087302000821540008730200082C
:1000E000730200087302000873020008730200081C
:1000F000730200087302000873020008730200080C
:1001000073020008730200087302000873020008FB
:1001100073020008730200087302000873020008EB
:100120007302000839040008730200087302000813
:1001300073020008650500087302000873020008D6
:1001400073020008730200087302000873020008BB
:1001500073020008490400087302000831540008C3
:10016000730200087302000873020008730200089B
:100170007302000873020008730200080000000008
:100180007302000873020008DFF80CD000F004F9D5
:1001900000480047E1590008D84701202B4B196857
:1001A0000868B0E8F04F80F30988BFF36F8F4FF015
:1001B000000080F3118870470000000006480068C6
:1001C000006880F3088862B661B6BFF34F8FBFF353
:1001D0006F8F00DF00BF00BF08ED00E0DFF80C000C
:1001E000016841F470010160704700BF88ED00E0D4
:1001F000EFF30980BFF36F8F144B1A681EF0100FD6
:1002000008BF20ED108A20E9F04F106008B44FF0CD
:10021000500080F31188BFF34F8FBFF36F8F06F04C
:10022000A1FA4FF0000080F3118808BC1968086833
:10023000B0E8F04F1EF0100F08BFB0EC108A80F34A
:100240000988BFF36F8F704700BF00BFF000002028
:10025000EFF30580704700000648804706480047D6
:10026000FEE7FEE7FEE7FEE7FEE7FEE7FEE7FEE766
:10027000FEE7FEE7F94B0008890100082DE9F05F71
:100280000546002092469B46884606468146402405
:100290001BE0284641464746224600F06CF853468C
:1002A0005A46C01A914110D311461846224600F012
:1002B00053F82D1A67EB01084F4622460120002112
:1002C00000F04AF817EB00094E41201EA4F101048A
:1002D000DFDC484631462A464346BDE8F09F40EA07
:1002E00001039B0703D009E008C9121F08C0042AB4
:1002F000FAD203E011F8013B00F8013B521EF9D29B
:100300007047D2B201E000F8012B491EFBD27047C2
:100310000022F6E710B513460A4604461946FFF7D1
:10032000F0FF204610BD30B505462A460B4612F8B0
:10033000010B13F8014B08B1A042F8D01CB1002802
:1003400002D06D1CF1E7284630BD421C10F8011B9D
:100350000029FBD1801A7047202A04DB203A00FADA
:1003600002F1002070479140C2F1200320FA03F30C
:10037000194390407047202A04DB203A21FA02F00A
:100380000021704721FA02F3D040C2F120029140CF
:100390000843194670470000064C074D06E0E06828
:1003A00040F0010394E8070098471034AC42F6D3BC
:1003B000FFF7EEFEE07200080073000870B58C18BD
:1003C00010F8015B15F0070301D110F8013B2A1169
:1003D00006D110F8012B03E010F8016B01F8016B56
:1003E0005B1EF9D12B0705D40023521E0DD401F852
:1003F000013BFAE710F8013BCB1A921C03E013F81B
:10040000015B01F8015B521EF9D5A142D8D300204F
:1004100070BD00BFFEE7000010B5024800F080FA92
:1004200010BD00003868002010B5024800F078FACE
:1004300010BD00009868002010B5024800F070FA66
:1004400010BD00005869002010B5024800F068FA9D
:1004500010BD0000F8680020014608781038182305
:10046000B0FBF3F20848805CC865032A05D9086828
:100470006FF30900001D886503E008686FF3090049
:100480008865886D70470000F871000801460020FB
:100490008A6A8B69CBB932B1012A0DD0022A03D006
:1004A000032A10D10EE000BFCB6A03F08073B3F1D2
:1004B000807F00D1012007E0CB6AB3F1C07F00D17B
:1004C000012001E000E000BF34E08B69B3F5005F7C
:1004D0001AD132B1012A07D0022A03D0032A11D13E
:1004E0000AE000BF01200EE0CB6A03F08073B3F195
:1004F000807F00D1012006E0CB6AB3F1C07F00D13C
:10050000012000E000BF15E032B1012A05D0022A27
:1005100004D0032A0CD103E000BF00BF012008E093
:10052000CB6A03F08073B3F1807F00D1012000E03B
:1005300000BF00BF704730B50468246824F48024ED
:1005400005682C60046863608468402C04D10468EA
:10055000A2600468E16003E00468A1600468E260EE
:1005600030BD704710B5024800F01FFD10BD0000FF
:100570007067002010B5816A002204E000230C6837
:10058000A4682371521C4B689342F7D810BD000039
:100590002DE9F041044611A016490860206AFFF7D2
:1005A000D4FE074613490868FFF7CFFE3844C61E3D
:1005B000304605F05BFA054635B90620207002206A
:1005C00060700020BDE8F0810A48226A0168284670
:1005D00004F050FF074805602846F3E741542B43D9
:1005E0004744434F4E543D312C224950222C222562
:1005F00073220D000000002070B504460D46002057
:100600002070607065600C48A0604FF48060A0812D
:100610000A4820614FF42050A0820948A06109488F
:10062000E0610948206203F00FF860620748A062A9
:1006300000680068E06270BD742900207401002029
:10064000742D0020D82D00203C2E00209871000829
:1006500010B5044610A004F0FDFE01202070012218
:100660001021114800F020FF4FF47A7005F034FAA1
:10067000002210210C4800F017FFC82005F02CFACA
:1006800001221021084800F00FFF41F6641005F028
:1006900023FA0220207010BD4D4F44554C20524586
:1006A0005345540D0A000000000C024030B585B0DF
:1006B00004460D4616A004F0CDFE29462046FFF75D
:1006C0009BFF142216496846FFF709FE214668463B
:1006D00005F044FA16E02078062810D111A004F0A5
:1006E000B9FE6078012804D129462046FFF784FF2F
:1006F00004E029462046FFF77FFF00BF00BF01202E
:1007000005F0EAF920780328E5D105B030BD0000F6
:100710000D0A4D4F44554C2053746172740D0A00FC
:10072000A07100080D0A47534D20494E49542045F9
:1007300052524F520D0A000008B506463446A06AD0
:10074000D0F800B0A06A406800900027BA46B846CA
:10075000042020702046FFF77BFF2046FFF718FF9C
:100760008146B9F1000F00D14DE02046FFF702FFAE
:100770002AA004F06FFE3DE05BF82750E56228797F
:1007800028B12DA1204600F07DF87F1C32E02046E4
:1007900004F0F8F88046B8F1000F02D0B8F1010F6C
:1007A00018D129A004F056FE0AF1010ABAF1140F7B
:1007B00004D9062020700120607024E02A492868AE
:1007C000884205D1B8F1000F02D12046FFF740FF63
:1007D00000270FE025492868884207D128688089CA
:1007E000002803DD2968888905F076F90120287141
:1007F0007F1C00BF00988742BED31DA004F02AFED4
:100800000320207000BFB9F1000F02D0484605F068
:10081000B7F800BF002005F0B9F9FBE747534D20BA
:10082000696E697469616C697A6174696F6E20734D
:10083000746172740D0A0000536B697020636F6DF0
:100840006D616E643A00000057726F6E67207265CA
:1008500073706F6E73652C20726573746172746946
:100860006E672E2E2E0D0A00D8700008E870000862
:1008700047534D20696E697469616C697A65642EAD
:100880000D0A00002DE9F04107468846F86A006825
:1008900005682846FFF759FD0646304605F0E6F89C
:1008A00004460CB9BDE8F08131462046FFF730FD23
:1008B000002010E0295C41B1295C202902DB295C81
:1008C0007F2902DD2E21215401E0295C2154215C85
:1008D00001B902E0401CB042ECDB00BF22464146B9
:1008E00003A004F0B7FD204605F04AF800BFD9E7A1
:1008F0002573205B25735D00014691F835000228C1
:1009000003D08020486501207047052081F835001C
:100910000868006820F001000A6810600020F3E712
:10092000F8B50446002000908C4800684FF416513A
:10093000B0FBF1F7A56D2E6894F85C100820884094
:10094000304098B12068006800F0040070B1206861
:10095000006820F004002168086094F85C1008200A
:100960008840A860606D40F00100606594F85C10FC
:1009700001208840304068B12068406900F0800064
:1009800040B194F85C1001208840A860606D40F090
:100990000200606594F85C1004208840304068B123
:1009A0002068006800F0020040B194F85C10042058
:1009B0008840A860606D40F00400606594F85C10A9
:1009C00010208840304078B32068006800F00800AC
:1009D00050B394F85C1010208840A860206800682C
:1009E00000F4802080B12068006800F4002028B95D
:1009F000206CC8B12046216C884715E0A06C98B1E6
:100A00002046A16C88470FE02068006800F48070E1
:100A100028B92068006820F0080021680860206C70
:100A200010B12046216C884794F85C102020884043
:100A30003040002865D02068006800F010000028D1
:100A40005FD094F85C1020208840A86094F83500AE
:100A5000052828D12068006820F016002168086069
:100A60002068406920F0800021684861206C08B946
:100A7000A06C28B12068006820F008002168086098
:100A800094F85C103F208840A86000BF002084F8E4
:100A9000340000BF012084F83500206D10B12046DD
:100AA000216D8847F8BD2068006800F4802080B17F
:100AB0002068006800F4002028B9606C10B120465E
:100AC000616C88471DE0E06BD8B12046E16B884738
:100AD00017E02068006800F4807068B9206800683A
:100AE00020F010002168086000BF002084F8340066
:100AF00000BF012084F83500E06B10B12046E16BA7
:100B00008847606D38B3606D00F00100F0B10520DA
:100B100084F835002068006820F001002168086032
:100B200000BF0098401C0090B84200D905E0206842
:100B3000006800F001000028F3D100BF00BF0020D2
:100B400084F8340000BF012084F83500E06C10B157
:100B50002046E16C884700BFA4E70000AC000020FD
:100B60002DE9F0410446002500F0DAFC074614B9EF
:100B70000120BDE8F081C0492068884249D0BE49C3
:100B800018312068884244D0BB49303120688842FF
:100B90003FD0B9494831206888423AD0B6496031DF
:100BA0002068884235D0B44978312068884230D0F6
:100BB000B1499031206888422BD0AF49A8312068D4
:100BC000884226D0AD492068884222D0AB491831EE
:100BD000206888421DD0A94930312068884218D049
:100BE000A64948312068884213D0A4496031206862
:100BF00088420ED0A14978312068884209D09F49A7
:100C000090312068884204D09C49A83120688842ED
:100C100000D103E0C8219AA004F086FE6068D8B134
:100C20006068B0F1007F17D06068B0F1806F13D0BA
:100C30006068B0F1C06F0FD06068B0F1006F0BD08A
:100C40006068B0F1206F07D06068B0F1406F03D0EA
:100C50006068B0F1606F00D103E0C92188A004F0A2
:100C600063FEA06828B1A068402802D0A068802850
:100C700000D103E0CA2182A004F056FEE068B0F57E
:100C8000007F01D0E06800B903E0CB217CA004F034
:100C90004BFE2069B0F5806F01D0206900B903E0F8
:100CA000CC2177A004F040FE606938B16069B0F5EE
:100CB000006F03D06069B0F5805F00D103E0CD2103
:100CC0006FA004F031FEA06938B1A069B0F5005FF3
:100CD00003D0A069B0F5804F00D103E0CE2168A019
:100CE00004F022FEE06930B1E069B0F5807F02D007
:100CF000E069202800D103E0CF2161A004F014FEB8
:100D0000206A58B1206AB0F5803F07D0206AB0F55C
:100D1000003F03D0206AB0F5403F00D103E0D0216E
:100D200057A004F001FE606A10B1606A042800D187
:100D300003E0D12152A004F0F7FD606A002835D00D
:100D4000A06A40B1A06A012805D0A06A022802D09A
:100D5000A06A032800D103E0D62149A004F0E4FDF5
:100D6000E06A58B1E06AB0F5000F07D0E06AB0F170
:100D7000807F03D0E06AB0F1C07F00D103E0D721CB
:100D80003FA004F0D1FD206B58B1206BB0F5001FDF
:100D900007D0206BB0F5800F03D0206BB0F5C00FEB
:100DA00000D103E0D82136A004F0BEFD00BF002032
:100DB00084F8340000BF022084F835002068006801
:100DC00020F00100216808600AE000F0A9FBC01BC8
:100DD000052805D920206065032084F83500C8E681
:100DE0002068006800F001000028EED12068056846
:100DF00031480540D4E901010843E168084321690D
:100E0000084361690843A1690843E1690843216A0D
:100E100008430543606A042803D1D4E90B01084361
:100E20000543206805602068456925F00705606A6C
:100E30000543606A04280DD1A06A0543E06A48B101
:100E40002046FFF723FB28B140206065012084F88D
:100E500035008EE6206845612046FFF7FDFA06461C
:100E600094F85C103F208840B0600020606501204D
:100E700084F8350000207CE61060024010640240D7
:100E80002E2E2F447269766572732F53544D333270
:100E9000463478785F48414C5F4472697665722FBA
:100EA0005372632F73746D3332663478785F686180
:100EB0006C5F646D612E63003F8010F02DE9F04798
:100EC00004460E4617461D464FF00008D4F85890C9
:100ED0001DB1B5F5803F00D204E04FF4EA7124A0C3
:100EE00004F022FD00BF94F83400012802D1022052
:100EF000BDE8F087012084F8340000BF94F8350085
:100F000001282BD1022084F83500002060652B4693
:100F10003A4631462046FFF70EFB94F85C103F201E
:100F20008840C9F808002068006840F01600216871
:100F300008602068406940F0800021684861206CAA
:100F400028B12068006840F0080021680860206827
:100F5000006840F001002168086006E000BF002042
:100F600084F8340000BF4FF002084046C0E700009C
:100F70002E2E2F447269766572732F53544D33327F
:100F8000463478785F48414C5F4472697665722FC9
:100F90005372632F73746D3332663478785F68618F
:100FA0006C5F646D612E6300704710B50446206865
:100FB00000F58050406900F0400040280FD12046E5
:100FC00000F046F84021206800F580504161012082
:100FD00084F8440000BF002084F8450016E0206833
:100FE00000F58050406900F0010078B1204600F023
:100FF00039F80121206800F580504161012084F812
:10100000440000BF002084F8450000BF4FF4803149
:10101000206800F580504161206800F580504069EB
:1010200000F40040B0F5004F10D12046FFF7BCFFA0
:101030004FF40041206800F580504161012084F8A0
:10104000440000BF002084F8450000BF10BD000030
:1010500010B504460248006804F050FD10BD0000C1
:10106000B0000020704700002DE9F84306460C460A
:101070004FF00009C8460025EA48864217D0EA48E2
:10108000864214D0E948864211D0E94886420ED003
:10109000E84886420BD0E848864208D0E7488642B6
:1010A00005D0E748864202D0E648864200D103E0F8
:1010B000C321E5A004F038FC208880B220B120686C
:1010C0006FF30F0000B903E0C421DFA004F02CFC93
:1010D000606830B36068012823D06068112820D090
:1010E000606802281DD0606812281AD0E54960683F
:1010F000884216D0E4496068884212D0E3496068AB
:1011000088420ED0E249606888420AD0E1496068AE
:10111000884206D0E0496068884202D060680328AF
:1011200000D103E0C521C8A004F0FEFBA06828B1EF
:10113000A068012802D0A068022800D103E0C621DF
:10114000C1A004F0F1FB002766E1012000FA07F9D5
:10115000206800EA0908C84570D16068022802D0FA
:10116000606812286BD12069002866D020690928A0
:1011700063D02069F0B32069E0B32069D0B320695F
:10118000C0B32069012858D02069012855D02069B2
:10119000022852D0206902284FD0206902284CD062
:1011A0002069032849D02069042846D020690428F2
:1011B00043D02069042840D0206905283DD020690B
:1011C00005283AD02069092837D02069062834D06C
:1011D0002069092831D0206907282ED020690728E6
:1011E0002BD02069072828D02069082825D020691D
:1011F000082800E021E020D0206908281DD02069BF
:1012000009281AD02069092817D020690A2814D083
:1012100020690A2811D020690B280ED020690C28DB
:101220000BD020690C2808D020690D2805D0206932
:101230000C2802D020690F2802D105E0E2E017E077
:10124000D72181A004F070FBF90806F1200050F8C6
:1012500021507807C10E0F20884085437907C90EB9
:10126000206988400543F90806F1200040F8215024
:1012700035687900032088408543207900F0030019
:1012800079008840054335606068012808D06068AF
:10129000022805D06068112802D06068122823D186
:1012A000E06840B1E068012805D0E068022802D07B
:1012B000E068032800D103E0EA2163A004F034FBD6
:1012C000B56879000320884085437900E06888404C
:1012D0000543B56075680120B84085432079C0F3A7
:1012E0000010B84005437560F56879000320884018
:1012F00085437900A06888400543F560606800F088
:101300008050B0F1805F7DD100BF00200090634825
:10131000006840F48040614908600846006800F4B5
:101320008040009000BF00BF5D48B90850F82150D0
:10133000B807010F0F20884085433A48864201D103
:10134000002023E03848864201D101201EE03748C2
:10135000864201D1022019E03548864201D103209E
:1013600014E03448864201D104200FE0324886421E
:1013700001D105200AE03148864201D1062005E06E
:101380002F48864201D1072000E00820B907090F45
:10139000884005434248B90840F821504148056853
:1013A00025EA0805606800F48030B0F5803F01D17F
:1013B00045EA08053B480560001D056825EA080563
:1013C000606800F40030B0F5003F01D145EA08053F
:1013D0003448001D0560001D056825EA08056068A1
:1013E00000F48010B0F5801F01D145EA08052D48B2
:1013F00008300560001D056825EA0805606800F4EE
:10140000001000E007E0B0F5001F01D145EA080533
:1014100024480C3005607F1C102FFFF496AEBDE809
:10142000F88300000000024000040240000802406F
:10143000000C02400010024000140240001802405C
:10144000001C0240002002402E2E2F447269766557
:1014500072732F53544D3332463478785F48414C81
:101460005F4472697665722F5372632F73746D33A4
:1014700032663478785F68616C5F6770696F2E637D
:1014800000000000000011100000211000003110C9
:1014900000001210000022100000321044380240F8
:1014A00008380140003C014070B506460C46154620
:1014B000A0B218B1200C000400B904E040F2AF1152
:1014C00008A004F031FA0DB1012D00D104E04FF471
:1014D000D87104A004F028FA0DB1B46101E0200431
:1014E000B06170BD2E2E2F447269766572732F53D2
:1014F000544D3332463478785F48414C5F447269CA
:101500007665722F5372632F73746D33326634783D
:10151000785F68616C5F6770696F2E630000000020
:101520000148006870470000C000002003480068C0
:10153000034909780844014908607047C000002049
:10154000C800002010B50D48006840F400700B4939
:1015500008600846006840F480600860084600683B
:1015600040F480700860032000F01AF9002000F0B9
:1015700007F800F04BF8002010BD0000003C0240CE
:1015800070B588B0044600250026002221461920A7
:1015900000F09CF8192000F065F800BF00200190D1
:1015A0001648006840F001001449086008460068C9
:1015B00000F00100019000BF00BF02A903A800F0E5
:1015C00067FC00F09DFC45000D48B5FBF0F0461EA1
:1015D0000C480D49086040F2E7310B48C160466095
:1015E00000210161816001F0E1F820B9064801F0B5
:1015F0008FF908B070BD0120FBE7000044380240BD
:1016000040420F00000001403801002010B50320C7
:1016100000F0C6F8002211466FF00B0000F056F8FB
:10162000002211466FF00A0000F050F80022114627
:101630006FF0090000F04AF800221146501F00F038
:1016400045F800221146101F00F040F800220F213B
:10165000901E00F03BF800220F21501E00F036F8DB
:1016600010BD000010B50446002C00DB03E0CE21C5
:1016700007A004F059F900BF04F01F0101208840C1
:101680006109890001F1E021C1F8000100BF10BD2E
:101690002E2E2F447269766572732F53544D333258
:1016A000463478785F48414C5F4472697665722FA2
:1016B0005372632F73746D3332663478785F686168
:1016C0006C5F636F727465782E6300002DE9F05FC4
:1016D00080460C4615460027102D00D203E0BA21A3
:1016E00020A004F021F9102C00D203E0BB211DA0A2
:1016F00004F01AF901F08CFF0746394622462B46C2
:1017000001F00700C0F1070ABAF1040F02D94FF047
:10171000040A01E0C0F1070AD14600F1040ABAF157
:10172000070F02D24FF0000A01E0A0F1030AD446ED
:101730004FF0010A0AFA09FAAAF1010A0AEA020AB2
:101740000AFA0CFA4FF0010B0BFA0CFBABF1010B90
:101750000BEA030B4AEA0B063146404601F060FFF4
:10176000BDE8F09F2E2E2F447269766572732F5359
:10177000544D3332463478785F48414C5F44726947
:101780007665722F5372632F73746D3332663478BB
:10179000785F68616C5F636F727465782E630000B8
:1017A00010B50446072C07D0062C05D0052C03D015
:1017B000042C01D0032C00D103E0A22109A004F0E5
:1017C000B3F800BF04F00701154A10684FF6FF0296
:1017D0001040144A024342EA0120114A106000BF3F
:1017E00010BD00002E2E2F447269766572732F5340
:1017F000544D3332463478785F48414C5F447269C7
:101800007665722F5372632F73746D33326634783A
:10181000785F68616C5F636F727465782E63000037
:101820000CED00E00000FA05F8B50446002500269E
:101830002068012803D32068072800D804E040F678
:10184000DD11B2A004F070F8207800F0010020B99A
:10185000207800F00400042848D1A068022803D3AF
:10186000A068072800D804E040F6E411A7A004F01F
:101870005BF86068322804D36068B0F5D87F00D880
:1018800004E040F6E511A1A004F04EF80020AE49B6
:101890008866FFF745FE054606E0FFF741FE401B60
:1018A000022801D90320F8BDA8480068C0F3C06031
:1018B0000028F2D160688101207A41EA0070A349D2
:1018C000843108600120A0498866FFF729FE05469B
:1018D00006E0FFF725FE401B022801D90320E2E7BE
:1018E0009A480068C0F3C0600028F2D0207800F069
:1018F000020002287ED1E068B0F5807F7ED0E068EB
:10190000B0F5007F7AD09249E068884276D091495C
:10191000E068884272D09049E06888426ED08F4972
:10192000E06888426AD08E49E068884266D08D4976
:10193000E068884262D08C49E06888425ED08B497A
:10194000E06888425AD08A49E068884256D089497E
:10195000E068884252D08849E06888424ED0874982
:10196000E06888424AD08649E068884246D0854986
:10197000E068884242D08449E06888423ED083498A
:10198000E06888423AD08249E068884236D081498E
:10199000E068884232D08049E06888422ED07F4992
:1019A000E06888422AD07E49E068884226D07D4996
:1019B000E068884222D07C49E06888421ED07B499A
:1019C000E06888421AD07A49E068884216D079499E
:1019D000E068884212D07849E06888420ED07749A2
:1019E000E06888420AD07649E068884206D07549A6
:1019F000E06801E088E001E0884200D104E040F6C0
:101A0000162142A003F090FF00BF002000904F4835
:101A10004030006840F080504C4940310860084632
:101A2000006800F08050009000BF00BF664800686A
:101A300040F4807064490860FFF772FD054606E0D7
:101A4000FFF76EFD401B022801D903202BE75E48FB
:101A5000006800F480700028F2D03C4870300068C4
:101A600000F440764EB3A08900F44070B04224D018
:101A700036487030006820F44076012053490860F1
:101A800000200860314870300660006800F00100F6
:101A900098B1FFF745FD054608E0FFF741FD401B03
:101AA00041F28831884201D90320FCE62748703092
:101AB0000068C0F340000028EFD000BFA08900F408
:101AC0004070B0F5407F0CD120480830006820F409
:101AD000F8103F4AE168114008431C49083108608A
:101AE00007E01A480830006820F4F8101749083158
:101AF0000860164870300068A189C1F30B010843E3
:101B000012497031086000BF0020CCE62E2E2F4411
:101B10007269766572732F53544D33324634787838
:101B20005F48414C5F4472697665722F5372632F30
:101B300073746D3332663478785F68616C5F72639A
:101B4000635F65782E630000000047420038024062
:101B5000000302000003030000030400000305006B
:101B6000000306000003070000030800000309004B
:101B700000030A0000030B0000030C0000030D002B
:101B800000030E0000030F0000031000000311000B
:101B900000031200000313000003140000031500EB
:101BA00000031600000317000003180000031900CB
:101BB00000031A0000031B0000031C0000031D00AB
:101BC00000031E0000031F0000700040400E47424B
:101BD000FFFCFF0F70B504460D460CB9012070BD27
:101BE0002068012803D320680F2800D804E04FF4B0
:101BF000147195A003F098FE6DB1012D0BD0022D4C
:101C000009D0032D07D0042D05D0052D03D0062DB6
:101C100001D0072D00D104E040F251218AA003F049
:101C200083FE9748006800F00F00A84209D294494B
:101C30000D700846006800F00F00A84201D0012096
:101C4000CDE7207800F0020002283DD1207800F096
:101C50000400042805D18B48006840F4E05089490D
:101C60000860207800F00800082805D18548006841
:101C700040F4604083490860A068B8B1A06880283B
:101C800014D0A068902811D0A068A0280ED0A06819
:101C9000B0280BD0A068C02808D0A068D02805D0F4
:101CA000A068E02802D0A068F02800D104E04FF43A
:101CB0001D7165A003F038FE7248006820F0F00046
:101CC000A16808436F490860207800F001000028EF
:101CD0004ED0606840B16068012805D06068022875
:101CE00002D06068032800D104E040F27B2156A0B6
:101CF00003F01AFE6068012807D1624808380068BE
:101D0000C0F34040B8B9012069E76068022802D0FA
:101D10006068032807D15B4808380068C0F340605A
:101D200048B901205BE7574808380068C0F3400015
:101D300008B9012053E75348006820F003006168A8
:101D4000084350490860FFF7EBFB064608E0FFF741
:101D5000E7FB801B41F28831884201D903203EE72E
:101D60004848006800F00C006168B0EB810FEED1CC
:101D70004348006800F00F00A84209D940490D709F
:101D80000846006800F00F00A84201D0012026E7B5
:101D9000207800F0040004281FD1E06878B1E068E2
:101DA000B0F5805F0BD0E068B0F5A05F07D0E068C9
:101DB000B0F5C05F03D0E068B0F5E05F00D104E0AB
:101DC00040F2B92120A003F0AFFD2E48006820F4B6
:101DD000E050E16808432B490860207800F00800D3
:101DE000082820D1206978B12069B0F5805F0BD038
:101DF0002069B0F5A05F07D02069B0F5C05F03D0BF
:101E00002069B0F5E05F00D104E04FF430710EA01E
:101E100003F08AFD1B48006820F46040216940EA15
:101E2000C1001849086000F07BF816490968C1F341
:101E30000311154A515CC840144908600020FFF79F
:101E40009FFB0020CBE600002E2E2F4472697665A2
:101E500072732F53544D3332463478785F48414C77
:101E60005F4472697665722F5372632F73746D339A
:101E700032663478785F68616C5F7263632E6300EA
:101E8000003C024008380240CC710008AC00002041
:101E90000F2202600D4A126802F0030242600B4AF0
:101EA000126802F0F0028260084A126802F4E052FE
:101EB000C260064A126802F46042D2080261044A13
:101EC000126802F00F020A607047000008380240F2
:101ED000003C02400148006870470000AC00002050
:101EE00000B5FFF7F7FF04490968C1F38221034AEF
:101EF000515CC84000BD000008380240DC71000899
:101F000000B5FFF7E7FF04490968C1F34231034A0E
:101F1000515CC84000BD000008380240DC71000878
:101F20002DE9F047002400250026A1462548006839
:101F300000F00C0020B1042805D008283AD105E0B3
:101F4000DFF8849039E0DFF8849036E01D48001F08
:101F5000006800F03F041B48001F006800F4800088
:101F600078B11A481749091F0968C1F38811A0FB05
:101F700001700146224600233846FEF77FF90546E8
:101F80000EE011480F49091F0968C1F38811A0FB31
:101F900001700146224600233846FEF76FF90546D8
:101FA0000848001F0068C0F30140401C4600B5FB14
:101FB000F6F902E0DFF8109000BF00BF4846BDE828
:101FC000F0870000083802400024F40040787D01CA
:101FD00070B586B006460C4615460EB1012E00D1EE
:101FE00004E040F2013145A003F09EFC5DB1B5F183
:101FF000806F08D0B5F1A06F05D0B5F1C06F02D0E9
:10200000B5F1E06F00D104E040F202313BA003F0F3
:102010008BFC002E38D144B1B4F5001F05D0B4F5C7
:10202000800F02D0B4F5C00F00D104E040F20631B9
:1020300032A003F079FC00BF002000903D4800680A
:1020400040F001003B4908600846006800F00100CC
:10205000009000BF00BF881501900220029003206D
:10206000049000200390059001A93348FEF7FCFF7F
:1020700030482838006820F0EC6044EA0501084345
:102080002C492839086037E044B1B4F1804F05D0BD
:10209000B4F1004F02D0B4F1404F00D104E040F25F
:1020A0001E3116A003F040FC00BF00200090214824
:1020B000006840F004001F4908600846006800F00E
:1020C0000400009000BF00BF48150190022002905C
:1020D0000320049000200390059001A91748FEF703
:1020E000C3FF14482838006820F0784044EAC5014E
:1020F000084310492839086006B070BD2E2E2F44C1
:102100007269766572732F53544D33324634787842
:102110005F48414C5F4472697665722F5372632F3A
:1021200073746D3332663478785F68616C5F7263A4
:10213000632E630030380240000002400008024075
:10214000F8B504460CB90120F8BD20680F2800D866
:1021500003E0F821FBA003F0E7FB207800F001008A
:10216000002870D0606838B16068B0F5803F03D057
:102170006068B0F5A02F00D103E0FD21F1A003F0CD
:10218000D3FBFE48006800F00C0004280DD0FB488B
:10219000006800F00C00082813D1F848001F006800
:1021A00000F48000B0F5800F0BD1F44808380068C7
:1021B000C0F34040002859D06068002856D1012063
:1021C000C2E700BF6068B0F5803F08D1EB4808382F
:1021D000006840F48030E949083908601EE0606812
:1021E000B0F5A02F0DD1E5480838006840F48020F4
:1021F000E249083908600846006840F48030086009
:102200000CE0DE480838006820F48030DB490839EB
:1022100008600846006820F48020086000BF6068FD
:1022200090B1FFF77DF9054606E0FFF779F9401B0D
:10223000642801D9032087E7D04808380068C0F334
:1022400040400028F1D011E0FFF76AF9054606E0AA
:10225000FFF766F9401B642801D9032074E7C748DB
:1022600008380068C0F340400028F1D1207800F021
:102270000200022873D1E06810B1E068012800D1A3
:1022800004E040F22F11AFA003F04EFB20691F289D
:1022900000D804E04FF49871AAA003F045FBB748BA
:1022A000006800F00C0058B1B448006800F00C0061
:1022B00008281CD1B148001F006800F48000B0B9A4
:1022C000AE4808380068C0F3400020B1E06801283B
:1022D00001D0012038E7A9480838006820F0F8004C
:1022E000216940EAC100A5490839086037E0E06883
:1022F00000B30120A2490860FFF712F9054606E085
:10230000FFF70EF9401B022801D903201CE79B4868
:1023100008380068C0F340000028F1D0974808381A
:10232000006820F0F800216940EAC10093490839AB
:10233000086014E0002092490860FFF7F1F80546B4
:1023400006E0FFF7EDF8401B022801D90320FBE669
:102350008A4808380068C0F340000028F1D120788E
:1023600000F00800082837D1606910B160690128C1
:1023700000D104E04FF4B87172A003F0D5FA60699F
:10238000A8B101207F490860FFF7CAF8054606E0BA
:10239000FFF7C6F8401B022801D90320D4E677488E
:1023A0006C300068C0F340000028F1D014E0002039
:1023B00074490860FFF7B4F8054606E0FFF7B0F887
:1023C000401B022801D90320BEE66C486C3000682F
:1023D000C0F340000028F1D1207800F00400042868
:1023E00075D10026A06828B1A068012802D0A06895
:1023F000052800D104E04FF4CE7152A003F094FA06
:102400005E483830006800F0805090B900BF00206E
:1024100000905A483830006840F0805057493831B1
:1024200008600846006800F08050009000BF00BFC0
:1024300001265548006800F48070B0B95248006821
:1024400040F4807050490860FFF76AF8054606E0DE
:10245000FFF766F8401B022801D9032074E64A48BA
:10246000006800F480700028F2D000BFA068012846
:1024700008D142486830006840F001003F496831A7
:1024800008601DE0A06805280DD13C486830006850
:1024900040F004003949683108600846006840F09F
:1024A000010008600CE035486830006820F0010049
:1024B0003249683108600846006820F0040008606E
:1024C00000BFA068A8B1FFF72BF8054609E02FE090
:1024D000FFF726F8401B41F28831884201D90320DA
:1024E00032E6264868300068C0F340000028EFD08C
:1024F00013E0FFF715F8054608E0FFF711F8401B59
:1025000041F28831884201D903201DE61B4868301A
:102510000068C0F340000028EFD1012E07D1174812
:102520003830006820F0805014493831086000BF0E
:10253000A06928B1A069012802D0A069022825D18C
:102540002AE000002E2E2F447269766572732F5395
:10255000544D3332463478785F48414C5F44726959
:102560007665722F5372632F73746D3332663478CD
:10257000785F68616C5F7263632E630008380240A5
:1025800000004742800E47420070004040F2DF11D9
:10259000AFF2500003F0C8F9A06900287CD054487D
:1025A000006800F00C00082877D0A069022875D1D7
:1025B000E06918B1E069B0F5800F00D105E04FF493
:1025C000F471AFF2800003F0AFF9206A3F2800D821
:1025D00005E040F2E911AFF2940003F0A5F9606A5A
:1025E000322804D3606AB0F5D87F00D805E04FF4F4
:1025F000F571AFF2B00003F097F9A06A022808D095
:10260000A06A042805D0A06A062802D0A06A08287B
:1026100000D105E040F2EB11AFF2D80003F084F9ED
:10262000E06A022803D3E06A0F2800D805E04FF4DF
:10263000F671AFF2F00003F077F900202D4908663B
:10264000FEF76EFF054606E0FEF76AFF401B022814
:1026500001D9032078E5264808380068C0F34060B7
:102660000028F1D1D4E907010843616A40EA8111E9
:102670000122A06AC2EB500041EA00412C20005D1B
:1026800041EA00601A49091F0860012019490866DB
:10269000FEF746FF054609E028E025E00EE0FEF7DC
:1026A0003FFF401B022801D903204DE510480838A0
:1026B0000068C0F340600028F1D017E000200D4909
:1026C0000866FEF72DFF054606E0FEF729FF401BD2
:1026D000022801D9032037E5054808380068C0F30F
:1026E00040600028F1D101E001202DE500202BE51C
:1026F000083802400000474210B50446042C00D0C0
:1027000004B904E040F2D9110BA003F00DF9042C38
:1027100008D14FF0E020006940F004004FF0E021C4
:10272000086107E04FF0E020006920F004004FF05E
:10273000E021086110BD00002E2E2F4472697665DD
:1027400072732F53544D3332463478785F48414C7E
:102750005F4472697665722F5372632F73746D33A1
:1027600032663478785F68616C5F636F7274657825
:102770002E63000070B504462546681EB0F1807FC8
:1027800001D301200FE0681E4FF0E02148610F21C6
:102790004FF0FF3000F044FF00204FF0E02188614F
:1027A00007200861002070BD7047704710B50446CF
:1027B0000CB9012010BD3A492068884233D0206806
:1027C000B0F1804F2FD03749206888422BD036494E
:1027D0002068884227D035492068884223D0344970
:1027E000206888421FD03349206888421BD0324974
:1027F0002068884217D031492068884213D0304978
:10280000206888420FD02F49206888420BD02E497B
:102810002068884207D02D492068884203D02C497F
:102820002068884200D103E0D7212AA003F07CF879
:10283000A06858B1A068102808D0A068202805D04A
:10284000A068402802D0A068602800D103E0D82109
:1028500020A003F069F8206938B12069B0F5807FC5
:1028600003D02069B0F5007F00D103E0D92119A081
:1028700003F05AF894F8390028B9002084F8380099
:10288000204600F043F8022084F83900211D20681A
:1028900002F0ECF9012084F8390000208AE70000FA
:1028A000000001400004004000080040000C00400F
:1028B00000100040001400400004014000400140AE
:1028C000004401400048014000180040001C004046
:1028D000002000402E2E2F447269766572732F53AC
:1028E000544D3332463478785F48414C5F447269C6
:1028F0007665722F5372632F73746D33326634783A
:10290000785F68616C5F74696D2E630070470000CA
:1029100010B5044625492068884233D02068B0F1BC
:10292000804F2FD02249206888422BD0214920682F
:10293000884227D020492068884223D01F49206838
:1029400088421FD01E49206888421BD01D4920683C
:10295000884217D01C492068884213D01B49206840
:1029600088420FD01A49206888420BD01949206844
:10297000884207D018492068884203D01749206848
:10298000884200D104E04FF4B17115A002F0CCFFF1
:102990002068C06840F001002168C86020680068B5
:1029A00040F0010021680860002010BD00000140D7
:1029B0000004004000080040000C004000100040EF
:1029C0000014004000040140004001400044014068
:1029D0000048014000180040001C0040002000405A
:1029E0002E2E2F447269766572732F53544D3332F5
:1029F000463478785F48414C5F4472697665722F3F
:102A00005372632F73746D3332663478785F686104
:102A10006C5F74696D2E6300704710B504462068C2
:102A20000069C0F34000D8B12068C068C0F340001E
:102A3000B0B16FF0020021680861012020762068A3
:102A4000806900F0030018B12046FFF7E5FF05E0BC
:102A5000204600F0ADF8204600F0ABF800202076CC
:102A600020680069C0F38000D8B12068C068C0F356
:102A70008000B0B16FF00400216808610220207668
:102A80002068806900F4407018B12046FFF7C4FF49
:102A900005E0204600F08CF8204600F08AF800207F
:102AA000207620680069C0F3C000D8B12068C068F3
:102AB000C0F3C000B0B16FF00800216808610420C5
:102AC00020762068C06900F0030018B12046FFF7A7
:102AD000A3FF05E0204600F06BF8204600F069F8FF
:102AE0000020207620680069C0F30010D8B120686B
:102AF000C068C0F30010B0B16FF010002168086129
:102B0000082020762068C06900F4407018B1204683
:102B1000FFF782FF05E0204600F04AF8204600F06B
:102B200048F8002020762068006900F0010058B1C4
:102B30002068C06800F0010030B16FF0010021682A
:102B40000861204600F036F820680069C0F3C01024
:102B500058B12068C068C0F3C01030B16FF0800079
:102B6000216808612046FFF71FFE20680069C0F356
:102B7000801058B12068C068C0F3801030B16FF089
:102B8000400021680861204600F020F820680069B4
:102B9000C0F3401058B12068C068C0F3401030B195
:102BA0006FF02000216808612046FFF7FEFD10BD90
:102BB0007047704710B5044603492068884201D128
:102BC000FEF7B4FC10BD00000000014070477047E4
:102BD0002DE9F0470446206805682068C66820682B
:102BE00047694FF00008C14605F00F08B8F1000F23
:102BF0000AD105F0200038B106F0200020B12046AF
:102C000002F04EF9BDE8F087B8F1000F6DD007F083
:102C1000010018B906F49070002866D005F0010094
:102C200030B106F4807018B1E06B40F00100E06351
:102C300005F0040030B107F0010018B1E06B40F07E
:102C40000200E06305F0020030B107F0010018B1A6
:102C5000E06B40F00400E06305F0080030B107F0DD
:102C6000010018B1E06B40F00800E063E06B68B36E
:102C700005F0200028B106F0200010B1204602F037
:102C80000FF920684069C0F38019E06B00F008007C
:102C900010B9B9F1000F22D0204602F0D7F8206811
:102CA000406900F04000B0B12068406920F0400069
:102CB00021684861606B50B11748616B0865606BB3
:102CC000FDF71AFE10B1606B016D88470CE02046DD
:102CD000FFF77DFF08E02046FFF779FF04E020467C
:102CE000FFF775FF0020E0638CE705F0800030B14E
:102CF00006F0800018B1204602F028FB82E705F0BC
:102D0000400030B106F0400018B1204602F0AEF8A5
:102D100078E700BF76E70000514D000810B5044683
:102D20000CB9012010BDA06900282AD048492068AC
:102D300088420BD047492068884207D0464920681E
:102D4000884203D045492068884200D104E04FF40E
:102D5000807143A002F0E8FDA06958B1A069B0F508
:102D6000807F07D0A069B0F5007F03D0A069B0F5DF
:102D7000407F00D123E040F2011139A002F0D4FDE0
:102D80001DE033492068884213D0324920688842C8
:102D90000FD03149206888420BD0404920688842D2
:102DA00007D03F492068884203D02C4920688842D8
:102DB00000D104E040F2051129A002F0B5FDA068A1
:102DC00018B1A068B0F5805F00D104E040F20711AF
:102DD00023A002F0A9FDE06918B1E069B0F5004F49
:102DE00000D104E04FF484711DA002F09DFD94F821
:102DF000390028B9002084F83800204600F052F845
:102E0000242084F839002068C06820F4005021682C
:102E1000C860204602F092F82068006920F49040D3
:102E2000216808612068406920F02A002168486113
:102E30002068C06840F400502168C8600020E0634A
:102E4000202084F8390084F83A0000206AE7000066
:102E500000100140004400400048004000140140C0
:102E60002E2E2F447269766572732F53544D333270
:102E7000463478785F48414C5F4472697665722FBA
:102E80005372632F73746D3332663478785F686180
:102E90006C5F756172742E6300000000004C00408E
:102EA0000050004010B586B004466D492068884245
:102EB00069D100BF002000906A48006840F40030EB
:102EC000684908600846006800F40030009000BFC0
:102ED00000BF602001900220029001200390032097
:102EE00004900720059001A95F48FEF7BDF85F48F0
:102EF0005F4908604FF00060486000215C488160D5
:102F0000C1604FF4806101610021416181614FF432
:102F10008071C161002101624162FDF721FE18B19B
:102F2000852154A002F08EFA00BF5148606384638B
:102F300000BF4E481830564908604FF000604860A6
:102F40004021534881600021C1604FF480610161DC
:102F5000002141618161C16101624162FDF700FEB2
:102F600018B1972143A002F06DFA00BF48482063D2
:102F7000846300BF002211462620FEF7A7FB26200F
:102F8000FEF770FB6AE043492068884266D100BFC3
:102F9000002000903348001D006840F020003149B7
:102FA000091D08600846006800F02000009000BF7E
:102FB00000BFC02001900220029001200390032056
:102FC00004900820059001A93348FEF74DF83348D6
:102FD000334908604FF020604860402130488160EC
:102FE0000021C1604FF48061016100214161816174
:102FF000C16101624162FDF7B3FD18B1C4211DA09A
:1030000002F020FA00BF26482063846300BF2348F3
:103010007838244908608005486000212148816093
:10302000C1604FF480610161002141618161C16132
:1030300001624162FDF794FD18B1D6210DA002F0A6
:1030400001FA00BF17486063846300BF0022114685
:103050004720FEF73BFB4720FEF704FB06B010BD00
:103060000044004040380240000C024088600240AA
:10307000386800202E2E2F5372632F73746D3332F5
:10308000663478785F68616C5F6D73702E630000E2
:10309000986800200014014000080240A06402402B
:1030A000F86800205869002077B581B004461546BD
:1030B00094F83A00202850D1029800B115B90120A7
:1030C00004B070BD00BF94F83800012801D102207F
:1030D000F6E7012084F8380000BF0298A062A585B9
:1030E0000020E063222084F83A001D48616BC86329
:1030F0001C48616B08641C48616BC8640020616BEC
:10310000086502AE32682368191D2B46606BFDF717
:10311000D5FE00BF00200090206800680090206865
:103120004068009000BF00BF00BF002084F8380056
:1031300000BF2068C06840F480702168C8602068C3
:10314000406940F00100216848612068406940F012
:103150004000216848610020B2E70220B0E700008B
:10316000B54D0008FB4D0008654D000870477047DD
:103170002DE9F84304460D4616461F464FF0000958
:1031800094F8390020285CD105B116B90120BDE8BA
:10319000F88300BF94F83800012801D10220F6E737
:1031A000012084F8380000BF0020E063212084F86B
:1031B0003900FEF7B5F98146A684E6842BE0E08C61
:1031C000401EE084A068B0F5805F16D14B46002217
:1031D00080212046009702F0EDF808B10320D6E7E1
:1031E000A846B8F80000C0F30800216848602069CC
:1031F00008B9AD1C0FE06D1C0DE04B46002280218C
:103200002046009702F0D6F808B10320BFE715F872
:10321000010B21684860E08C0028D0D14B46002289
:1032200040212046009702F0C5F808B10320AEE720
:10323000202084F8390000BF002084F8380000BF47
:10324000A5E70220A3E70000F7B50446154694F869
:10325000390020283DD1019800B10DB90120FEBDF3
:1032600000BF94F83800012801D10220F7E70120BF
:1032700084F8380000BF01982062A584E58400200E
:10328000E063212084F839001348216BC863134898
:10329000216B08641248216BC8640020216B08650B
:1032A00001AE23681A1D31682B46206BFDF706FE20
:1032B0006FF040002168086000BF002084F83800EB
:1032C00000BF2068406940F080002168486100200C
:1032D000C5E70220C3E70000094E00083F4E000882
:1032E000654D0008704770474D2102A002F01CFB9D
:1032F00000BFFEE72E2E2F5372632F73746D33328F
:10330000663478785F69742E6300000008B500BFEA
:10331000002000901E48006840F480001C490860AE
:103320000846006800F48000009000BF00BF00BFA6
:10333000002000900846006840F40010086008462D
:10334000006800F40010009000BF00BF002211468A
:103350001020FEF7BBF91020FEF784F90022114679
:103360001120FEF7B3F91120FEF77CF90022114677
:103370003920FEF7ABF93920FEF774F90022114627
:103380004520FEF7A3F94520FEF76CF908BD0000C3
:103390003038024000B587B000BF002001906E4871
:1033A000006840F010006C4908600846006800F0B2
:1033B0001000019000BF00BF00BF00200190084630
:1033C000006840F0040008600846006800F004004F
:1033D000019000BF00BF00BF0020019008460068B8
:1033E00040F0800008600846006800F0800001900E
:1033F00000BF00BF00BF002001900846006840F0F9
:10340000010008600846006800F00100019000BF5C
:1034100000BF00BF002001900846006840F0020095
:1034200008600846006800F00200019000BF00BF7D
:1034300000BF002001900846006840F008000860C6
:103440000846006800F00800019000BF00BF00229D
:1034500048F27F014148FEF727F800220D2140483D
:10346000FEF722F8002210213E48FEF71DF848F230
:103470007F0002900120039000200490059002A993
:103480003648FDF7F1FD4FF47D4002900320039094
:103490000020049002A93248FDF7E6FD0D200290BD
:1034A0000120039000200490059002A92C48FDF70C
:1034B000DBFD49F679700290032003900020049010
:1034C00002A92948FDF7D0FD4CF2FF3002900320FD
:1034D00003900020049002A92448FDF7C5FD4FF495
:1034E000FF400290032003900020049002A91B4893
:1034F000FDF7BAFD4FF48060029000200390049025
:1035000002A91A48FDF7B0FD4FF68F700290032014
:1035100003900020049002A91248FDF7A5FD4FF486
:103520000070029002200390002004900220059079
:103530000020069002A90A48FDF796FD102002908F
:103540000120039000200490059002A90548FDF792
:103550008BFD07B000BD0000303802400010024073
:1035600000080240000C024000000240000402403B
:1035700010B50C480C4908604FF4E1304860002158
:1035800009488160C16001610C21416100218161B4
:10359000C161FFF7C3FB20B14FF4887103A001F0B4
:1035A00051FF10BD00440040B86700202E2E5C5330
:1035B00072635C6D61696E2E6300000010B50C488B
:1035C0000C4908604FF4E1304860002109488160EF
:1035D000C16001610C21416100218161C161FFF77E
:1035E0009DFB20B140F2231103A001F02BFF10BD81
:1035F00000140140F86700202E2E5C5372635C6D4E
:1036000061696E2E6300000000BFFEE77047000096
:1036100002480068C0F30220704700000CED00E093
:1036200010B5002807DA0A07140E054A00F00F0348
:103630001B1FD45403E00A07130E024A135410BD93
:1036400018ED00E000E400E000487047B4710008A5
:103650000246506B00684068081A70472DE9F04137
:1036600005460E46174602E0012002F035FA95F8AD
:1036700039002028F8D13A4631462846FFF714FD94
:103680000446012C03D105A001F0E4FE04E0022C65
:1036900002D109A001F0DEFEBDE8F0810D0A55530C
:1036A00041525420526563656976652048414C5FFC
:1036B0004552524F520D0A000D0A555341525420A3
:1036C000526563656976652048414C5F42555359A0
:1036D0000D0A00002DE9F04106460F4614461D462E
:1036E000DDF81880224639463046FFF7B7FF4346DB
:1036F0002A462146304601F00FF9BDE8F08100006E
:10370000F8B504460D461646606B0068006820F068
:103710000100616B09680860606B0068FA498842C3
:1037200068D9606B0068F949884201D120205DE0CA
:10373000606B0068F4494839884201D1202055E087
:10374000606B0068F1496031884201D120204DE072
:10375000606B0068EC491831884201D1202045E0B7
:10376000606B0068E9491831884201D1C0143DE01E
:10377000606B0068E4493039884201D1C01435E0FB
:10378000606B0068E1497831884201D1C0142DE0B6
:10379000606B0068DC493031884201D1C01425E0FB
:1037A000606B0068D9493031884202D14FF4001073
:1037B0001CE0606B0068D4491839884202D14FF48C
:1037C000001013E0606B0068D0499031884202D14C
:1037D0004FF400100AE0606B0068CB494831884222
:1037E00002D14FF4001001E04FF00060C6494C399F
:1037F000086045E1606B0068C449A831884268D917
:10380000606B0068C149884201D120205DE0606B97
:103810000068BD494839884201D1202055E0606BDD
:103820000068BA496031884201D120204DE0606BC8
:103830000068B5491831884201D1202045E0606B0D
:103840000068B2491831884201D1C0143DE0606B74
:103850000068AD493039884201D1C01435E0606B51
:103860000068AA497831884201D1C0142DE0606B0C
:103870000068A5493031884201D1C01425E0606B51
:103880000068A2493031884202D14FF400101CE098
:10389000606B00689C491839884202D14FF40010CF
:1038A00013E0606B006899499031884202D14FF46F
:1038B00000100AE0606B006893494831884202D1E9
:1038C0004FF4001001E04FF000608F49503908605C
:1038D000D6E0606B00688D494831884268D9606BDA
:1038E00000688A49884201D120205DE0606B006851
:1038F00085494839884201D1202055E0606B006835
:1039000082496031884201D120204DE0606B00681F
:103910007D491831884201D1202045E0606B006864
:103920007A491831884201D1C0143DE0606B0068CB
:1039300075493039884201D1C01435E0606B0068A8
:1039400072497831884201D1C0142DE0606B006863
:103950006D493031884201D1C01425E0606B0068A8
:103960006A493031884202D14FF400101CE0606B8C
:10397000006865491839884202D14FF4001013E0FD
:10398000606B006861499031884202D14FF40010A9
:103990000AE0606B00685C494831884202D14FF40C
:1039A000001001E04FF0006058491039C86067E02E
:1039B000606B00685549884201D120205DE0606B52
:1039C000006851494839884201D1202055E0606B98
:1039D00000684E496031884201D120204DE0606B83
:1039E000006849491831884201D1202045E0606BC8
:1039F000006846491831884201D1C0143DE0606B2F
:103A0000006841493039884201D1C01435E0606B0B
:103A100000683E497831884201D1C0142DE0606BC6
:103A2000006839493031884201D1C01425E0606B0B
:103A3000006836493031884202D14FF400101CE052
:103A4000606B006830491839884202D14FF4001089
:103A500013E0606B00682D499031884202D14FF429
:103A600000100AE0606B006827494831884202D1A3
:103A70004FF4001001E04FF00060244910398860D5
:103A8000606B0068204988426AD9606B00681F49F2
:103A9000884201D110205FE0606B00681A49483904
:103AA000884201D1102057E0606B006817496031EF
:103AB000884201D110204FE0606B00681249183134
:103AC000884201D1102047E0606B00680F4918312F
:103AD000884201D100153FE0606B00680A49303927
:103AE000884201D1001537E0606B006807497831E2
:103AF000884201D100152FE0606B00680249303127
:103B0000884205D1001527E0586402401060024049
:103B1000606B0068FA49884202D14FF480101BE0C4
:103B2000606B0068F749884202D14FF4801013E0BF
:103B3000606B0068F2496031884202D14FF4801016
:103B40000AE0606B0068EF496031884202D14FF4AF
:103B5000801001E04FF08060EA493439086042E1AA
:103B6000606B0068E6497831884267D9606B00680D
:103B7000E3493039884201D110205BE0606B006876
:103B8000E0493039884201D1102053E0606B006871
:103B9000DB493031884201D110204BE0606B006876
:103BA000D8493031884201D1102043E0606B006871
:103BB000D3491839884201D100153BE0606B006899
:103BC000D0491839884201D1001533E0606B006894
:103BD000CB494831884201D100152BE0606B006869
:103BE000C8494831884201D1001523E0606B006864
:103BF000C349884202D14FF480101BE0606B00681B
:103C0000C049884202D14FF4801013E0606B006815
:103C1000BB496031884202D14FF480100AE0606BEA
:103C20000068B8496031884202D14FF4801001E049
:103C30004FF08060B34938390860D4E0606B0068A9
:103C4000AF491831884267D9606B0068AC49303998
:103C5000884201D110205BE0606B0068A9493039CF
:103C6000884201D1102053E0606B0068A4493031D4
:103C7000884201D110204BE0606B0068A1493031CF
:103C8000884201D1102043E0606B00689C491839DC
:103C9000884201D100153BE0606B006899491839F2
:103CA000884201D1001533E0606B006894494831C7
:103CB000884201D100152BE0606B006891494831C2
:103CC000884201D1001523E0606B00688C4988426E
:103CD00002D14FF480101BE0606B00688949884274
:103CE00002D14FF4801013E0606B006884496031AA
:103CF000884202D14FF480100AE0606B006881496D
:103D00006031884202D14FF4801001E04FF08060B2
:103D10007B494039C86066E0606B0068784930399B
:103D2000884201D110205BE0606B00687549303932
:103D3000884201D1102053E0606B00687049303137
:103D4000884201D110204BE0606B00686D49303132
:103D5000884201D1102043E0606B0068684918393F
:103D6000884201D100153BE0606B00686549183955
:103D7000884201D1001533E0606B0068604948312A
:103D8000884201D100152BE0606B00685D49483125
:103D9000884201D1001523E0606B006858498842D1
:103DA00002D14FF480101BE0606B006855498842D7
:103DB00002D14FF4801013E0606B0068504960310D
:103DC000884202D14FF480100AE0606B00684D49D0
:103DD0006031884202D14FF4801001E04FF08060E2
:103DE000474940398860606B00684649183188420D
:103DF00067D9606B006842493039884201D1082098
:103E00005BE0606B00683F493039884201D108208F
:103E100053E0606B00683A493031884201D1082094
:103E20004BE0606B006837493031884201D108208F
:103E300043E0606B006832491839884201D140156F
:103E40003BE0606B00682F491839884201D140156A
:103E500033E0606B00682A494831884201D140153F
:103E60002BE0606B006827494831884201D140153A
:103E700023E0606B00682249884202D14FF40020A1
:103E80001BE0606B00681F49884202D14FF400209C
:103E900013E0606B00681A496031884202D14FF428
:103EA00000200AE0606B006816496031884202D148
:103EB0004FF4002001E04FF00070124934390860DF
:103EC00047E1606B00680E49783188426CD9606BBD
:103ED00000680B493039884201D1082060E0606BEE
:103EE000006808493039884201D1082058E0606BE9
:103EF000006803493031884206D1082050E00000B4
:103F00004060024040640240606B0068F7498842AC
:103F100001D1082044E0606B0068F549884201D176
:103F200040153DE0606B0068F0494839884201D196
:103F3000401535E0606B0068ED496031884201D181
:103F400040152DE0606B0068E8491831884201D1C6
:103F5000401525E0606B0068E5491831884202D1C0
:103F60004FF400201CE0606B0068E0493039884263
:103F700002D14FF4002013E0606B0068DC49783117
:103F8000884202D14FF400200AE0606B0068D749F4
:103F90003031884202D14FF4002001E04FF0007030
:103FA000D24968390860D4E0606B0068D04930318C
:103FB000884267D9606B0068CD491839884201D1C1
:103FC00008205BE0606B0068C8496039884201D115
:103FD000082053E0606B0068C5494831884201D130
:103FE00008204BE0606B0068C049884201D108207E
:103FF00044E0606B0068BE49884201D140153DE055
:10400000606B0068B9494839884201D1401535E0F4
:10401000606B0068B6496031884201D140152DE0DF
:10402000606B0068B1491831884201D1401525E024
:10403000606B0068AE491831884202D14FF400200D
:104040001CE0606B0068A9493039884202D14FF406
:10405000002013E0606B0068A5497831884202D1E6
:104060004FF400200AE0606B0068A04930318842BC
:1040700002D14FF4002001E04FF000709C49283934
:10408000C86066E0606B006899491839884201D1C0
:1040900008205BE0606B006894496039884201D178
:1040A000082053E0606B006891494831884201D193
:1040B00008204BE0606B00688C49884201D10820E1
:1040C00044E0606B00688A49884201D140153DE0B8
:1040D000606B006885494839884201D1401535E058
:1040E000606B006882496031884201D140152DE043
:1040F000606B00687D491831884201D1401525E088
:10410000606B00687A491831884202D14FF4002070
:104110001CE0606B006875493039884202D14FF469
:10412000002013E0606B006871497831884202D149
:104130004FF400200AE0606B00686C49303188421F
:1041400002D14FF4002001E04FF000706849283997
:104150008860606B006865491839884267D9606B70
:10416000006863491839884201D104205BE0606B24
:1041700000685E496039884201D1042053E0606BD9
:1041800000685B494831884201D104204BE0606BF4
:1041900000685649884201D1042044E0606B006801
:1041A0005349884201D180153DE0606B00684F495A
:1041B0004839884201D1801535E0606B00684C4970
:1041C0006031884201D180152DE0606B006847495D
:1041D0001831884201D1801525E0606B00684449A0
:1041E0001831884202D14FF480201CE0606B0068D7
:1041F0003E493039884202D14FF4802013E0606B91
:1042000000683B497831884202D14FF480200AE0AF
:10421000606B006835493031884202D14FF480200C
:1042200001E04FF0807031496439086046E1606B0D
:1042300000682F49903188426AD9606B00682C4928
:104240001839884201D104205EE0606B006827497C
:104250006039884201D1042056E0606B006824492F
:104260004831884201D104204EE0606B00681F494C
:10427000884201D1042047E0606B00681C498842F5
:1042800001D1801540E0606B0068184948398842C8
:1042900001D1801538E0606B0068154960318842B3
:1042A00001D1801530E0606B0068104918318842F8
:1042B00001D1801528E0606B00680D4918318842F3
:1042C00002D14FF480201FE0606B0068074930394D
:1042D000884202D14FF4802016E0606B00680449E8
:1042E0007831884206D14FF480200DE0706402409E
:1042F00028600240606B0068FA49884202D14FF49E
:10430000802001E04FF08070F64998390860D5E0D0
:10431000606B0068F449884268D9606B0068F249B4
:104320004839884201D104205CE0606B0068ED49A7
:104330009039884201D1042054E0606B0068EA495A
:104340001831884201D104204CE0606B0068E549D7
:104350003039884201D1042044E0606B0068E249B2
:104360003039884201D180153CE0606B0068DD493E
:104370007839884201D1801534E0606B0068DA49F1
:104380003031884201D180152CE0606B0068D5493E
:104390001839884201D1801524E0606B0068D24949
:1043A0001839884202D14FF480201BE0606B00680E
:1043B000CC496039884202D14FF4802012E0606B12
:1043C0000068C9494831884202D14FF4802009E091
:1043D000606B0068C349884202D14FF4802001E03D
:1043E0004FF08070C0495839C86067E0606B006862
:1043F000BD494839884201D104205CE0606B006807
:10440000B8499039884201D1042054E0606B0068BB
:10441000B5491831884201D104204CE0606B006836
:10442000B0493039884201D1042044E0606B006813
:10443000AD493039884201D180153CE0606B00689D
:10444000A8497839884201D1801534E0606B006852
:10445000A5493031884201D180152CE0606B00689D
:10446000A0491839884201D1801524E0606B0068AA
:104470009D491839884202D14FF480201BE0606BBF
:10448000006898496039884202D14FF4802012E0D8
:10449000606B006894494831884202D14FF4802013
:1044A00009E0606B00688F49884202D14FF4802098
:1044B00001E04FF080708C4958398860606B00686B
:1044C00088494839884268D9606B0068864948390C
:1044D000884201D101205CE0606B0068814990391D
:1044E000884201D1012054E0606B00687E49183198
:1044F000884201D101204CE0606B00687949303975
:10450000884201D1012044E0606B0068764930396F
:10451000884201D140203CE0606B006871497839E5
:10452000884201D1402034E0606B00686E49303130
:10453000884201D140202CE0606B0068694918393D
:10454000884201D1402024E0606B00686649183938
:10455000884202D14FF480301BE0606B00686149F3
:104560006039884202D14FF4803012E0606B0068FD
:104570005D494831884202D14FF4803009E0606BD8
:1045800000685849884202D14FF4803001E04FF46E
:10459000800054499439086047E1606B00685249D3
:1045A0006031884268D9606B00684F494839884259
:1045B00001D101205CE0606B00684A499039884273
:1045C00001D1012054E0606B0068474918318842EE
:1045D00001D101204CE0606B0068424930398842CB
:1045E00001D1012044E0606B00683F4930398842C6
:1045F00001D140203CE0606B00683A49783988423C
:1046000001D1402034E0606B006837493031884286
:1046100001D140202CE0606B006832491839884293
:1046200001D1402024E0606B00682F49183988428E
:1046300002D14FF480301BE0606B0068294960397B
:10464000884202D14FF4803012E0606B0068264946
:104650004831884202D14FF4803009E0606B006835
:104660002049884202D14FF4803001E04FF48000AD
:104670001C4998390860D8E0606B00681A49884284
:104680006CD9606B006818494839884201D1012013
:1046900060E0606B006813499039884201D10120C5
:1046A00058E0606B006810491831884201D1012040
:1046B00050E0606B00680B493039884201D101201D
:1046C00048E0606B006808493039884201D14020D9
:1046D00040E0606B006803497839884206D1402089
:1046E00038E00000A064024058600240606B00683F
:1046F0005D49884201D140202CE0606B00685B4935
:10470000884201D1402025E0606B00685649483955
:10471000884202D14FF480301CE0606B006853493E
:104720004839884202D14FF4803013E0606B006852
:104730004D491831884202D14FF480300AE0606B55
:1047400000684A491831884202D14FF4803001E0B4
:104750004FF4800044498839C86066E0606B0068A7
:1047600041497839884201D101205BE0606B0068E3
:104770003E497839884201D1012053E0606B0068DE
:1047800039491839884201D101204BE0606B00683B
:1047900036491839884201D1012043E0606B006836
:1047A00031496039884201D140203BE0606B0068AC
:1047B0002E496039884201D1402033E0606B0068A7
:1047C0002949884201D140202CE0606B00682749CC
:1047D000884201D1402025E0606B006822494839B9
:1047E000884202D14FF480301CE0606B00681F49A2
:1047F0004839884202D14FF4803013E0606B006882
:1048000019491831884202D14FF480300AE0606BB8
:10481000006816491831884202D14FF4803001E017
:104820004FF48000104988398860606B00684660EA
:10483000606B0068C56031462846FBF769FD00BF24
:104840000020009020680068009020684068009078
:1048500000BF00BF606B0068006840F00100616B42
:1048600009680860F8BD0000886002408864024062
:104870002DE9F04105460E46174602E0012001F001
:104880002BF995F839002028F8D13A4631462846C8
:10489000FEF7DAFC0446012C03D108A000F0DAFD93
:1048A0000AE0022C03D10DA000F0D4FD04E0032C9B
:1048B00002D111A000F0CEFDBDE8F0810D0A5553E4
:1048C000415254205472616E736D69742048414C9A
:1048D0005F4552524F520D0A000000000D0A555319
:1048E000415254205472616E736D69742048414C7A
:1048F0005F425553590D0A000D0A55534152542039
:104900005472616E736D69742048414C5F54494D17
:10491000454F55540D0A00002DE9F04705460E4657
:10492000174698460024A146C24607E0012001F040
:10493000D3F8686B00684068341A7F1E022C01DAD5
:10494000002FF3DC04B107B916E011E0012001F0FB
:10495000C3F8686B00684068341A4C4501D1AAF16D
:10496000010A4C4500DDC246B44200D104E0A14634
:10497000BAF1000FEADC00BF202085F83A0020469B
:10498000BDE8F0872DE9F0410446E06A0568266934
:104990000027A28A616A60680B6931469847A28A3B
:1049A000616A60684B6831469847286870B124A0F6
:1049B000296800F04FFD2868FBF7C7FC1FFA80F854
:1049C0002968626A60681368424698476B892A8939
:1049D000A18AD4F824806068D8F808C0E047074668
:1049E000002F28DD002008E0315C202902DB315C4B
:1049F000802901DB2E213154401CB842F4DB3046C3
:104A00006968FBF790FC38B13246394611A000F0D6
:104A100021FD3846BDE8F081012F05D1317813A082
:104A200000F018FD0120F5E73246394614A000F0E9
:104A300011FD0020EEE719A000F00CFD0020E9E7D1
:104A40000D0A415420434F4D4D414E443A25730DBC
:104A50000A000000415420524553504F4E53452800
:104A60002569293A205B25735D0D0A005245535094
:104A70004F4E5345205552433A2025690D0A0000F8
:104A800041542042414420524553504F4E534528F3
:104A90002569293A205B25735D0D0A0041543A20AF
:104AA00054494D454F55540D0A000000054906482C
:104AB000FBF7FCFD05A000F0CDFC00BF002001F0DD
:104AC00065F8FBE7B8670020A0360020504C454150
:104AD000534520434F4E4E45435420544F20424FA0
:104AE0004152440D0A00000010B501F02FF810BD2E
:104AF00010B596B000BF002000903948006840F023
:104B00008050374908600846006800F080500090E7
:104B100000BF00BF00BF002000903248006840F492
:104B20008040304908600846006800F480400090EA
:104B300000BF00BF01200A9000040B9002201090DB
:104B400041051191192112914FF4A871139102217D
:104B50001491072115910AA8FDF7F2FA18B1DB218B
:104B600021A000F06FFC0F2005900220069000208D
:104B700007904FF4A05008904FF480500990052101
:104B800005A8FDF727F818B1E92117A000F05AFC95
:104B900001200190642002900221039101A8FCF7FA
:104BA00043FE18B1F12110A000F04CFC00224FF0A0
:104BB00080410120FDF70CFAFDF78CF94FF47A7172
:104BC000B0FBF1F42046FDF7D5FD0420FDF794FD80
:104BD00000220F21501EFCF779FD16B010BD000019
:104BE00040380240007000402E2E5C5372635C6DB2
:104BF00061696E2E630000001448006840F4700084
:104C0000124908601248006840F00100104908602D
:104C100000200F49083108600D4800680D49084020
:104C20000B4908600C48091D0860081F006820F443
:104C30008020091F0860002005490C3108604FF0F2
:104C400000600249803908607047000088ED00E08C
:104C500000380240FFFFF6FE1030002410B5024875
:104C6000FDF7DBFE10BD00003801002000220268C5
:104C70002C4B98420ED0B0F1804F0BD02A4B98426B
:104C800008D02A4B984205D0294B984202D0294B94
:104C9000984201D1012300E000231BB122F07002F1
:104CA0004B681A431F4B984220D0B0F1804F1DD063
:104CB0001D4B98421AD01D4B984217D01C4B98425E
:104CC00014D01C4B984211D01B4B98420ED01B4B5A
:104CD00098420BD01A4B984208D01A4B984205D0F4
:104CE000194B984202D0194B984201D1012300E0A0
:104CF00000231BB122F44072CB681A4302608B6818
:104D0000C3620B688362074B984202D0094B9842FA
:104D100001D1012300E000230BB10B6903630123E0
:104D2000436170470000014000040040000800405B
:104D3000000C0040000401400040014000440140DC
:104D40000048014000180040001C004000200040C6
:104D500070B50546AC6B0020E085E0842046FDF789
:104D600036FF70BD70B506460025B46B20684069FB
:104D7000C0F3C01594F83900212805D125B10020D1
:104D8000E084204600F082F820684069C0F3801576
:104D900094F83A00222805D125B10020E08520466C
:104DA00000F054F8E06B40F01000E0632046FDF79F
:104DB0000EFF70BD70B50546AC6B2868006800F446
:104DC0008070B0B90020E0852068C06820F4807051
:104DD0002168C8602068406920F0010021684861AE
:104DE0002068406920F0400021684861202084F854
:104DF0003A002046FEF7BAF970BD70B50446A56BBF
:104E00002846FEF7B4F970BD70B50546AC6B28684E
:104E1000006800F4807070B90020E0842068406968
:104E200020F08000216848612068C06840F04000A0
:104E30002168C86002E02046FEF754FA70BD70B5E4
:104E40000446A56B2846FEF74EFA70BD0168C96896
:104E500021F490710268D1600168496921F0010173
:104E600002685161202180F83A10704710B504465D
:104E70002068C06820F040002168C860202084F8C5
:104E800039002046FEF72EFA002010BD0168C968DF
:104E900021F0C0010268D160202180F839107047EC
:104EA00070B5044694F83A00222844D1A068B0F5C1
:104EB000805F13D1A56A206940B920684068C0F3BB
:104EC00008002880A06A801CA06219E02068406861
:104ED000C0B22880A06A401CA06211E0206938B9E5
:104EE00020684068C1B2A26A501CA062117007E03D
:104EF0002068406800F07F01A26A501CA062117017
:104F0000E08D401E80B2E08598B92068C06820F42A
:104F100090702168C8602068406920F00100216815
:104F20004861202084F83A002046FEF71FF900204F
:104F300070BD0020FCE70220FAE700002DE9F041F7
:104F400004460025EF496068884200D204E040F63C
:104F50008511EDA000F0E8FCE06818B1E068B0F55C
:104F6000005F00D104E040F68611E7A000F0DCFC11
:104F7000206938B12069B0F5806F03D02069B0F5A1
:104F8000C06F00D104E040F68711DFA000F0CCFC38
:104F90004FF6F3716069084010B9606900B104E030
:104FA00040F68811D8A000F0BFFC2068056925F400
:104FB0004055E0680543206805612068C56849F2EE
:104FC0000C6085432169A068084361690843E16971
:104FD000084305432068C5602068456925F440758D
:104FE000A069054320684561E069B0F5004F7CD1B8
:104FF000D4492068884203D0D349206888425DD1D3
:10500000FCF77EFF00EBC00101EB00106168490076
:10501000B0FBF1F06421B0FBF1F00601FCF770FF8A
:1050200000EBC00101EB001061684900B0FBF1F733
:10503000FCF766FF00EBC00101EB0010616849005E
:10504000B0FBF1F06421B0FBF1F000EBC00101EB2B
:105050000010A7EB8000322101EBC0006421B0FBFF
:10506000F1F000F0F80006EB4006FCF749FF00EB1A
:10507000C00101EB001061684900B0FBF1F7FCF7DB
:105080003FFF00EBC00101EB001061684900B0FB7D
:10509000F1F06421B0FBF1F000EBC00101EB001076
:1050A000A7EB8000322101EBC0006421B0FBF1F0DE
:1050B00000F0070030442168886020E1FCF710FF11
:1050C00000EBC00101EB001061684900B0FBF1F09A
:1050D0006421B0FBF1F00601FCF702FF00EBC00118
:1050E00001EB00106168490000E047E0B0FBF1F718
:1050F000FCF7F6FE00EBC00101EB0010616849000F
:10510000B0FBF1F06421B0FBF1F000EBC00101EB6A
:105110000010A7EB8000322101EBC0006421B0FB3E
:10512000F1F000F0F80006EB4006FCF7D9FE00EBCA
:10513000C00101EB001061684900B0FBF1F7FCF71A
:10514000CFFE00EBC00101EB001061684900B0FB2D
:10515000F1F06421B0FBF1F000EBC00101EB0010B5
:10516000A7EB8000322101EBC0006421B0FBF1F01D
:1051700000F00700304421688860C0E07149206871
:10518000884203D07049206888425CD1FCF7B8FEA1
:1051900000EBC00101EB001061688900B0FBF1F683
:1051A000FCF7AEFE00EBC00101EB00106168890066
:1051B000B0FBF1F06421B0FBF1F000EBC00101EBBA
:1051C0000010A6EB8000322101EB00106421B0FB3F
:1051D000F1F000F0F006FCF793FE00EBC00101EBEC
:1051E000001061688900B0FBF1F06421B0FBF1F0C0
:1051F00006EB0016FCF784FE00EBC00101EB00108B
:1052000061688900B0FBF1F7FCF77AFE00EBC001A2
:1052100001EB001061688900B0FBF1F06421B0FB84
:10522000F1F000EBC00101EB0010A7EB8000322190
:1052300001EB00106421B0FBF1F000F00F003044EE
:10524000216888605BE0FCF74BFE00EBC00101EBDE
:10525000001061688900B0FBF1F6FCF741FE00EB3D
:10526000C00101EB001061688900B0FBF1F064211E
:10527000B0FBF1F000EBC00101EB0010A6EB8000E9
:10528000322101EB00106421B0FBF1F000F0F006D8
:10529000FCF726FE00EBC00101EB001061688900FD
:1052A000B0FBF1F06421B0FBF1F006EB0016FCF767
:1052B00017FE00EBC00101EB001061688900B0FB34
:1052C000F1F7FCF70DFE00EBC00101EB0010616887
:1052D0008900B0FBF1F06421B0FBF1F000EBC001FC
:1052E00001EB0010A7EB8000322101EB00106421DC
:1052F000B0FBF1F000F00F00304421688860BDE899
:10530000F0810000A137A0002E2E2F44726976652F
:1053100072732F53544D3332463478785F48414C82
:105320005F4472697665722F5372632F73746D33A5
:1053300032663478785F68616C5F756172742E6371
:10534000000000000010014000140140014691F8E7
:10535000390021282CD18868B0F5805F0FD10A6A06
:105360001088C0F308000B685860086918B9086A0B
:10537000801C086209E0086A401C086205E00B6AAC
:10538000581C086218780B685860C88C401E80B2A0
:10539000C88458B90868C06820F080000B68D860DD
:1053A0000868C06840F040000B68D8600020704773
:1053B0000220FCE72DE9F04104460D4617469846C9
:1053C000069E21E0701CF8B12EB1FCF7A9F8A0EB05
:1053D0000800B04218D92068C06820F4D070216855
:1053E000C8602068406920F00100216848612020E1
:1053F00084F8390084F83A0000BF002084F83800AF
:1054000000BF0320BDE8F081206800682840A84262
:1054100001D1012000E00020B842D3D00020F1E704
:1054200010B50248FDF7D4FB10BD0000B86700209E
:1054300010B50248FDF7CCFB10BD0000F867002056
:1054400000BFFEE704460D462946204600F06CFAF0
:1054500000BFFEE70FB4054B10B503A9044A02983C
:1054600000F02CF810BC5DF814FB00006559000832
:105470002C0100200FB4084B10B504A902AA039810
:1054800000F01CF8044602A9002000F048FA20466B
:1054900010BC5DF814FB00001F59000802E008C8AA
:1054A000121F08C1002AFAD170477047002001E09E
:1054B00001C1121F002AFBD1704700002DE9FF4FE8
:1054C0008DB00F460546002606E025280BD0DDE905
:1054D0000F1290476D1C761C28780028F5D111B06A
:1054E0003046BDE8F08F0024A246A1460122EC49D7
:1054F00000E0044315F8013F203B02FA03F00842A4
:10550000F7D128782A2810D06FF02F022878A0F140
:105510003001092914D80AEB8A0102EB410144F059
:10552000020400EB010A6D1CF0E701CF5FEA000AFC
:1055300003D544F40054CAF1000A44F002046D1C7F
:1055400028782E2817D115F8010F44F004042A28D2
:105550000ED06FF02F022878A0F1300109290AD867
:1055600009EB890102EB410100EB01096D1CF2E737
:1055700057F8049B6D1C28786C280FD006DC4C284B
:1055800017D068280DD06A2814D104E0742810D0F0
:105590007A280FD10DE044F400140AE044F480149A
:1055A00001E044F440146978814202D104F580148A
:1055B0006D1C6D1C2A786E2A1FD00CDC632A31D03A
:1055C00004DC002A8BD0582A11D1A3E0642A68D0C9
:1055D000692A0CD165E0732A2ED004DC6F2A73D0BF
:1055E000702A04D19BE0752A6FD0782A6ED01046BD
:1055F000DDE90F129047761C50E1C4F302500228F7
:1056000006D0032809D0042801CF09D0066045E15F
:1056100001CFF117C0E9006140E101CF06803DE113
:1056200006703BE117F8040B8DF8000000208DF8A0
:105630000100EB46012003E057F804BB4FF0FF30B8
:1056400061074FF0000102D40DE008F10101884626
:1056500049450FDA8045F8DB1BF808100029F4D122
:1056600008E008F1010188468142FADB1BF80810C6
:105670000029F6D1DDE90F23AAEB08008146214677
:1056800000F036F9304400EB080604E0DDE90F12C3
:105690001BF8010B9047B8F10108F7D221464846A4
:1056A000F7E00A21C4F302534FF0000B0891022BDC
:1056B00004D001CFC117032B09D00AE0FF1D27F04A
:1056C0000707F7E8020108E032E01FE020E000B23F
:1056D000C117042B01D140B2C117031E71F10003A1
:1056E00007DA4FF0000CD0EB0C006CEB01012D231E
:1056F00002E0230504D52B238DF82430012303E099
:10570000E30701D02023F7E7984658E00A2110E08C
:1057100010210EE010204FF0000B08900CE010213B
:105720004FF0000B44F004044FF00809089103E027
:1057300008214FF0000B0891C4F30253022B04D050
:1057400001CF0021032B06D006E0FF1D27F007073D
:10575000F7E8020103E080B2042B00D1C0B24FF0A1
:10576000000823072BD5702A07D0DDF820C08CF065
:10577000100C5CEA0B0C05D00EE040238DF82430B1
:10578000012308E050EA010306D030238DF82430CD
:105790008DF8252002239846DDF820C08CF0080CF7
:1057A0005CEA0B0C0BD150EA010301D1630706D56B
:1057B00030238DF824304FF00108A9F10109582A4F
:1057C00004D038A20B9208AA0A920BE03AA2F9E799
:1057D0005B46089AFAF752FD0B9B9B5C0A9A521E95
:1057E0000A92137050EA0102F2D10A98ADEB000060
:1057F00000F1200B600702D524F4803401E04FF063
:105800000109D94502DDA9EB0B0000E0002000EB07
:105810000B0141440890AAEB010AE00306D4DDE93C
:105820000F232146504600F063F806444FF000096C
:1058300008E009A911F80900DDE90F12904709F104
:105840000109761CC145F4DBE0030CD5DDE90F232B
:105850002146504600F04CF8064404E0DDE90F1202
:1058600030209047761C0899481E08900029F5DCE6
:1058700008E00A980A990078491C0A91DDE90F129C
:105880009047761CBBF10001ABF1010BF1DC214626
:105890005046DDE90F2300F019F806446D1C1BE6A5
:1058A00009280100303132333435363738396162F6
:1058B00063646566000000003031323334353637BA
:1058C0003839414243444546000000002DE9F0418B
:1058D000044600251E461746880404D405E03946D0
:1058E0002020B0476D1C641EF9D52846BDE8F08124
:1058F0002DE9F041044600251E469046C80301D517
:10590000302700E02027880404D505E041463846CA
:10591000B0476D1C641EF9D52846BDE8F0810A68C1
:10592000531C0B601070704770B504460D462A4634
:10593000214602A0FFF78EFD70BD00005F45727228
:105940006F725F48616E646C65723A2066696C655F
:10595000202573206F6E206C696E652025640D0A0A
:105960000000000013B50C464FF0FF3301226946DA
:105970000248FDF7FDFB00981CBD0000F867002001
:1059800010B5002821D0114B0022001F196803E038
:10599000814203D80A4649680029F9D152B11368F7
:1059A000841A9C4204D1006818441060104602E03A
:1059B000506000E0186039B102680B1A934203D1BD
:1059C0000B681A4402604968416010BD3001002034
:1059D00000BFEFF3058008B1012070470020FCE70D
:1059E00086B0FBF7AFFDFFF783F8FDF7D3FCFDF7BB
:1059F0008DFCFDF7BDFDFDF7E1FD0E220DA1114867
:105A0000FAF76DFC104811A10968016010480FA158
:105A10000968016014220F4901A8FAF760FC00210F
:105A200001A800F09BF80C49086000F061F800BF85
:105A3000FEE70000766D692E76656C636F6D2E62F1
:105A4000790000003C2E0020742D0020766D690046
:105A5000D82D0020E4710008B40000200146002089
:105A6000842901D0CA1C104470470000F0B50B30E7
:105A7000154D20F007010024144A0FE003688B4203
:105A80000BD38B4205D95E1A43184768C3E90067F8
:105A900000E04368136002C004E0021D10680028A3
:105AA000ECD12046002802D1286808B10020F0BDC2
:105AB000064A07481060074A121A22F00702C0E996
:105AC000002401202860D7E73401002030010020A5
:105AD000DCE70020D807012070B5044625460DB14B
